{
  "contractName": "GameContract",
  "abi": [
    {
      "inputs": [
        {
          "internalType": "string",
          "name": "_name",
          "type": "string"
        },
        {
          "internalType": "string",
          "name": "_symbol",
          "type": "string"
        },
        {
          "internalType": "string",
          "name": "treeBossName",
          "type": "string"
        },
        {
          "internalType": "uint256",
          "name": "treeBossMaxHpPoints",
          "type": "uint256"
        },
        {
          "internalType": "uint256",
          "name": "treeBossAttackPoints",
          "type": "uint256"
        },
        {
          "internalType": "string",
          "name": "treeBossImageURI",
          "type": "string"
        }
      ],
      "stateMutability": "nonpayable",
      "type": "constructor"
    },
    {
      "anonymous": false,
      "inputs": [
        {
          "indexed": true,
          "internalType": "address",
          "name": "owner",
          "type": "address"
        },
        {
          "indexed": true,
          "internalType": "address",
          "name": "approved",
          "type": "address"
        },
        {
          "indexed": true,
          "internalType": "uint256",
          "name": "tokenId",
          "type": "uint256"
        }
      ],
      "name": "Approval",
      "type": "event"
    },
    {
      "anonymous": false,
      "inputs": [
        {
          "indexed": true,
          "internalType": "address",
          "name": "owner",
          "type": "address"
        },
        {
          "indexed": true,
          "internalType": "address",
          "name": "operator",
          "type": "address"
        },
        {
          "indexed": false,
          "internalType": "bool",
          "name": "approved",
          "type": "bool"
        }
      ],
      "name": "ApprovalForAll",
      "type": "event"
    },
    {
      "anonymous": false,
      "inputs": [
        {
          "indexed": true,
          "internalType": "address",
          "name": "owner",
          "type": "address"
        },
        {
          "indexed": false,
          "internalType": "bool",
          "name": "isBossDefeated",
          "type": "bool"
        }
      ],
      "name": "BossAttacked",
      "type": "event"
    },
    {
      "anonymous": false,
      "inputs": [
        {
          "indexed": true,
          "internalType": "address",
          "name": "owner",
          "type": "address"
        },
        {
          "indexed": false,
          "internalType": "uint256",
          "name": "id",
          "type": "uint256"
        },
        {
          "indexed": false,
          "internalType": "uint256",
          "name": "dna",
          "type": "uint256"
        }
      ],
      "name": "CreateSkull",
      "type": "event"
    },
    {
      "anonymous": false,
      "inputs": [
        {
          "indexed": true,
          "internalType": "address",
          "name": "owner",
          "type": "address"
        }
      ],
      "name": "LevelUpSkull",
      "type": "event"
    },
    {
      "anonymous": false,
      "inputs": [
        {
          "indexed": true,
          "internalType": "address",
          "name": "previousOwner",
          "type": "address"
        },
        {
          "indexed": true,
          "internalType": "address",
          "name": "newOwner",
          "type": "address"
        }
      ],
      "name": "OwnershipTransferred",
      "type": "event"
    },
    {
      "anonymous": false,
      "inputs": [
        {
          "indexed": true,
          "internalType": "address",
          "name": "owner",
          "type": "address"
        }
      ],
      "name": "ReviveSkull",
      "type": "event"
    },
    {
      "anonymous": false,
      "inputs": [
        {
          "indexed": true,
          "internalType": "address",
          "name": "from",
          "type": "address"
        },
        {
          "indexed": true,
          "internalType": "address",
          "name": "to",
          "type": "address"
        },
        {
          "indexed": true,
          "internalType": "uint256",
          "name": "tokenId",
          "type": "uint256"
        }
      ],
      "name": "Transfer",
      "type": "event"
    },
    {
      "inputs": [
        {
          "internalType": "address",
          "name": "to",
          "type": "address"
        },
        {
          "internalType": "uint256",
          "name": "tokenId",
          "type": "uint256"
        }
      ],
      "name": "approve",
      "outputs": [],
      "stateMutability": "nonpayable",
      "type": "function"
    },
    {
      "inputs": [
        {
          "internalType": "address",
          "name": "owner",
          "type": "address"
        }
      ],
      "name": "balanceOf",
      "outputs": [
        {
          "internalType": "uint256",
          "name": "",
          "type": "uint256"
        }
      ],
      "stateMutability": "view",
      "type": "function",
      "constant": true
    },
    {
      "inputs": [
        {
          "internalType": "uint256",
          "name": "tokenId",
          "type": "uint256"
        }
      ],
      "name": "getApproved",
      "outputs": [
        {
          "internalType": "address",
          "name": "",
          "type": "address"
        }
      ],
      "stateMutability": "view",
      "type": "function",
      "constant": true
    },
    {
      "inputs": [
        {
          "internalType": "address",
          "name": "owner",
          "type": "address"
        },
        {
          "internalType": "address",
          "name": "operator",
          "type": "address"
        }
      ],
      "name": "isApprovedForAll",
      "outputs": [
        {
          "internalType": "bool",
          "name": "",
          "type": "bool"
        }
      ],
      "stateMutability": "view",
      "type": "function",
      "constant": true
    },
    {
      "inputs": [],
      "name": "name",
      "outputs": [
        {
          "internalType": "string",
          "name": "",
          "type": "string"
        }
      ],
      "stateMutability": "view",
      "type": "function",
      "constant": true
    },
    {
      "inputs": [],
      "name": "owner",
      "outputs": [
        {
          "internalType": "address",
          "name": "",
          "type": "address"
        }
      ],
      "stateMutability": "view",
      "type": "function",
      "constant": true
    },
    {
      "inputs": [
        {
          "internalType": "uint256",
          "name": "tokenId",
          "type": "uint256"
        }
      ],
      "name": "ownerOf",
      "outputs": [
        {
          "internalType": "address",
          "name": "",
          "type": "address"
        }
      ],
      "stateMutability": "view",
      "type": "function",
      "constant": true
    },
    {
      "inputs": [],
      "name": "renounceOwnership",
      "outputs": [],
      "stateMutability": "nonpayable",
      "type": "function"
    },
    {
      "inputs": [
        {
          "internalType": "address",
          "name": "from",
          "type": "address"
        },
        {
          "internalType": "address",
          "name": "to",
          "type": "address"
        },
        {
          "internalType": "uint256",
          "name": "tokenId",
          "type": "uint256"
        }
      ],
      "name": "safeTransferFrom",
      "outputs": [],
      "stateMutability": "nonpayable",
      "type": "function"
    },
    {
      "inputs": [
        {
          "internalType": "address",
          "name": "from",
          "type": "address"
        },
        {
          "internalType": "address",
          "name": "to",
          "type": "address"
        },
        {
          "internalType": "uint256",
          "name": "tokenId",
          "type": "uint256"
        },
        {
          "internalType": "bytes",
          "name": "_data",
          "type": "bytes"
        }
      ],
      "name": "safeTransferFrom",
      "outputs": [],
      "stateMutability": "nonpayable",
      "type": "function"
    },
    {
      "inputs": [
        {
          "internalType": "address",
          "name": "operator",
          "type": "address"
        },
        {
          "internalType": "bool",
          "name": "approved",
          "type": "bool"
        }
      ],
      "name": "setApprovalForAll",
      "outputs": [],
      "stateMutability": "nonpayable",
      "type": "function"
    },
    {
      "inputs": [
        {
          "internalType": "uint256",
          "name": "",
          "type": "uint256"
        }
      ],
      "name": "skulls",
      "outputs": [
        {
          "internalType": "uint256",
          "name": "id",
          "type": "uint256"
        },
        {
          "internalType": "string",
          "name": "name",
          "type": "string"
        },
        {
          "internalType": "uint256",
          "name": "dna",
          "type": "uint256"
        },
        {
          "internalType": "uint8",
          "name": "level",
          "type": "uint8"
        },
        {
          "internalType": "uint8",
          "name": "rarity",
          "type": "uint8"
        },
        {
          "internalType": "uint256",
          "name": "maxHpPoints",
          "type": "uint256"
        },
        {
          "internalType": "uint256",
          "name": "hpPoints",
          "type": "uint256"
        },
        {
          "internalType": "uint256",
          "name": "attackPoints",
          "type": "uint256"
        }
      ],
      "stateMutability": "view",
      "type": "function",
      "constant": true
    },
    {
      "inputs": [
        {
          "internalType": "bytes4",
          "name": "interfaceId",
          "type": "bytes4"
        }
      ],
      "name": "supportsInterface",
      "outputs": [
        {
          "internalType": "bool",
          "name": "",
          "type": "bool"
        }
      ],
      "stateMutability": "view",
      "type": "function",
      "constant": true
    },
    {
      "inputs": [],
      "name": "symbol",
      "outputs": [
        {
          "internalType": "string",
          "name": "",
          "type": "string"
        }
      ],
      "stateMutability": "view",
      "type": "function",
      "constant": true
    },
    {
      "inputs": [
        {
          "internalType": "uint256",
          "name": "tokenId",
          "type": "uint256"
        }
      ],
      "name": "tokenURI",
      "outputs": [
        {
          "internalType": "string",
          "name": "",
          "type": "string"
        }
      ],
      "stateMutability": "view",
      "type": "function",
      "constant": true
    },
    {
      "inputs": [
        {
          "internalType": "address",
          "name": "from",
          "type": "address"
        },
        {
          "internalType": "address",
          "name": "to",
          "type": "address"
        },
        {
          "internalType": "uint256",
          "name": "tokenId",
          "type": "uint256"
        }
      ],
      "name": "transferFrom",
      "outputs": [],
      "stateMutability": "nonpayable",
      "type": "function"
    },
    {
      "inputs": [
        {
          "internalType": "address",
          "name": "newOwner",
          "type": "address"
        }
      ],
      "name": "transferOwnership",
      "outputs": [],
      "stateMutability": "nonpayable",
      "type": "function"
    },
    {
      "inputs": [],
      "name": "treeBoss",
      "outputs": [
        {
          "internalType": "string",
          "name": "name",
          "type": "string"
        },
        {
          "internalType": "uint256",
          "name": "maxHpPoints",
          "type": "uint256"
        },
        {
          "internalType": "uint256",
          "name": "hpPoints",
          "type": "uint256"
        },
        {
          "internalType": "uint256",
          "name": "attackPoints",
          "type": "uint256"
        },
        {
          "internalType": "string",
          "name": "imageURI",
          "type": "string"
        }
      ],
      "stateMutability": "view",
      "type": "function",
      "constant": true
    },
    {
      "inputs": [
        {
          "internalType": "uint256",
          "name": "_cost",
          "type": "uint256"
        }
      ],
      "name": "updateCost",
      "outputs": [],
      "stateMutability": "nonpayable",
      "type": "function"
    },
    {
      "inputs": [],
      "name": "withdrawOwner",
      "outputs": [],
      "stateMutability": "payable",
      "type": "function",
      "payable": true
    },
    {
      "inputs": [
        {
          "internalType": "address",
          "name": "_owner",
          "type": "address"
        }
      ],
      "name": "getUserSkulls",
      "outputs": [
        {
          "components": [
            {
              "internalType": "uint256",
              "name": "id",
              "type": "uint256"
            },
            {
              "internalType": "string",
              "name": "name",
              "type": "string"
            },
            {
              "internalType": "uint256",
              "name": "dna",
              "type": "uint256"
            },
            {
              "internalType": "uint8",
              "name": "level",
              "type": "uint8"
            },
            {
              "internalType": "uint8",
              "name": "rarity",
              "type": "uint8"
            },
            {
              "internalType": "uint256",
              "name": "maxHpPoints",
              "type": "uint256"
            },
            {
              "internalType": "uint256",
              "name": "hpPoints",
              "type": "uint256"
            },
            {
              "internalType": "uint256",
              "name": "attackPoints",
              "type": "uint256"
            }
          ],
          "internalType": "struct GameContract.Skull[]",
          "name": "",
          "type": "tuple[]"
        }
      ],
      "stateMutability": "view",
      "type": "function",
      "constant": true
    },
    {
      "inputs": [],
      "name": "getSkulls",
      "outputs": [
        {
          "components": [
            {
              "internalType": "uint256",
              "name": "id",
              "type": "uint256"
            },
            {
              "internalType": "string",
              "name": "name",
              "type": "string"
            },
            {
              "internalType": "uint256",
              "name": "dna",
              "type": "uint256"
            },
            {
              "internalType": "uint8",
              "name": "level",
              "type": "uint8"
            },
            {
              "internalType": "uint8",
              "name": "rarity",
              "type": "uint8"
            },
            {
              "internalType": "uint256",
              "name": "maxHpPoints",
              "type": "uint256"
            },
            {
              "internalType": "uint256",
              "name": "hpPoints",
              "type": "uint256"
            },
            {
              "internalType": "uint256",
              "name": "attackPoints",
              "type": "uint256"
            }
          ],
          "internalType": "struct GameContract.Skull[]",
          "name": "",
          "type": "tuple[]"
        }
      ],
      "stateMutability": "view",
      "type": "function",
      "constant": true
    },
    {
      "inputs": [],
      "name": "getBossInfo",
      "outputs": [
        {
          "components": [
            {
              "internalType": "string",
              "name": "name",
              "type": "string"
            },
            {
              "internalType": "uint256",
              "name": "maxHpPoints",
              "type": "uint256"
            },
            {
              "internalType": "uint256",
              "name": "hpPoints",
              "type": "uint256"
            },
            {
              "internalType": "uint256",
              "name": "attackPoints",
              "type": "uint256"
            },
            {
              "internalType": "string",
              "name": "imageURI",
              "type": "string"
            }
          ],
          "internalType": "struct GameContract.TreeBoss",
          "name": "",
          "type": "tuple"
        }
      ],
      "stateMutability": "view",
      "type": "function",
      "constant": true
    },
    {
      "inputs": [],
      "name": "addressSmartContract",
      "outputs": [
        {
          "internalType": "address",
          "name": "",
          "type": "address"
        }
      ],
      "stateMutability": "view",
      "type": "function",
      "constant": true
    },
    {
      "inputs": [],
      "name": "moneySmartContract",
      "outputs": [
        {
          "internalType": "uint256",
          "name": "",
          "type": "uint256"
        }
      ],
      "stateMutability": "view",
      "type": "function",
      "constant": true
    },
    {
      "inputs": [],
      "name": "withdrawWinner",
      "outputs": [],
      "stateMutability": "payable",
      "type": "function",
      "payable": true
    },
    {
      "inputs": [
        {
          "internalType": "string",
          "name": "_name",
          "type": "string"
        }
      ],
      "name": "createSkull",
      "outputs": [],
      "stateMutability": "payable",
      "type": "function",
      "payable": true
    },
    {
      "inputs": [
        {
          "internalType": "uint256",
          "name": "_skullId",
          "type": "uint256"
        }
      ],
      "name": "levelUpSkull",
      "outputs": [],
      "stateMutability": "payable",
      "type": "function",
      "payable": true
    },
    {
      "inputs": [
        {
          "internalType": "uint256",
          "name": "_skullId",
          "type": "uint256"
        }
      ],
      "name": "reviveSkull",
      "outputs": [],
      "stateMutability": "payable",
      "type": "function",
      "payable": true
    },
    {
      "inputs": [
        {
          "internalType": "uint256",
          "name": "_skullId",
          "type": "uint256"
        }
      ],
      "name": "attackSkull",
      "outputs": [],
      "stateMutability": "payable",
      "type": "function",
      "payable": true
    }
  ],
  "bytecode": "0x608060405266038d7ea4c680006008553480156200001c57600080fd5b50604051620030bd380380620030bd8339810160408190526200003f91620002c4565b855186908690620000589060009060208501906200016b565b5080516200006e9060019060208401906200016b565b5050506200008b620000856200011560201b60201c565b62000119565b6040805160a0810182528581526020808201869052918101859052606081018490526080810183905285519091600a91620000cc918391908901906200016b565b5060208281015160018301556040830151600283015560608301516003830155608083015180516200010592600485019201906200016b565b50905050505050505050620003dd565b3390565b600680546001600160a01b038381166001600160a01b0319831681179093556040519116919082907f8be0079c531659141344cd1fd0a4f28419497f9722a3daafe3b4186f6b6457e090600090a35050565b82805462000179906200038a565b90600052602060002090601f0160209004810192826200019d5760008555620001e8565b82601f10620001b857805160ff1916838001178555620001e8565b82800160010185558215620001e8579182015b82811115620001e8578251825591602001919060010190620001cb565b50620001f6929150620001fa565b5090565b5b80821115620001f65760008155600101620001fb565b600082601f83011262000222578081fd5b81516001600160401b03808211156200023f576200023f620003c7565b604051601f8301601f19908116603f011681019082821181831017156200026a576200026a620003c7565b8160405283815260209250868385880101111562000286578485fd5b8491505b83821015620002a957858201830151818301840152908201906200028a565b83821115620002ba57848385830101525b9695505050505050565b60008060008060008060c08789031215620002dd578182fd5b86516001600160401b0380821115620002f4578384fd5b620003028a838b0162000211565b9750602089015191508082111562000318578384fd5b620003268a838b0162000211565b965060408901519150808211156200033c578384fd5b6200034a8a838b0162000211565b9550606089015194506080890151935060a08901519150808211156200036e578283fd5b506200037d89828a0162000211565b9150509295509295509295565b6002810460018216806200039f57607f821691505b60208210811415620003c157634e487b7160e01b600052602260045260246000fd5b50919050565b634e487b7160e01b600052604160045260246000fd5b612cd080620003ed6000396000f3fe6080604052600436106101cd5760003560e01c806395d89b41116100f7578063c87b56dd11610095578063e8cc00ad11610064578063e8cc00ad146104df578063e985e9c5146104e7578063f2fde38b14610507578063ff14c6b414610527576101cd565b8063c87b56dd14610491578063caeaab87146104b1578063d698a56c146104c4578063dd32858e146104d7576101cd565b8063b88d4fde116100d1578063b88d4fde14610408578063c0081ae114610428578063c2f5168a1461045c578063c7d3b89614610471576101cd565b806395d89b41146103be57806399470ee6146103d3578063a22cb465146103e8576101cd565b80632e479fb41161016f578063715018a61161013e578063715018a61461036e57806375691130146103835780638d1e9d45146103965780638da5cb5b146103a9576101cd565b80632e479fb4146102db57806342842e0e146103015780636352211e1461032157806370a0823114610341576101cd565b8063095ea7b3116101ab578063095ea7b31461025757806314fe73151461027957806323b872dd1461029b57806323c5a088146102bb576101cd565b806301ffc9a7146101d257806306fdde0314610208578063081812fc1461022a575b600080fd5b3480156101de57600080fd5b506101f26101ed36600461221f565b610549565b6040516101ff919061243d565b60405180910390f35b34801561021457600080fd5b5061021d610591565b6040516101ff9190612448565b34801561023657600080fd5b5061024a61024536600461229d565b610623565b6040516101ff9190612330565b34801561026357600080fd5b506102776102723660046121f6565b61066f565b005b34801561028557600080fd5b5061028e610707565b6040516101ff9190612381565b3480156102a757600080fd5b506102776102b6366004612108565b61084c565b3480156102c757600080fd5b506102776102d636600461229d565b610884565b3480156102e757600080fd5b506102f06108c8565b6040516101ff95949392919061245b565b34801561030d57600080fd5b5061027761031c366004612108565b6109fa565b34801561032d57600080fd5b5061024a61033c36600461229d565b610a15565b34801561034d57600080fd5b5061036161035c3660046120bc565b610a4a565b6040516101ff9190612a59565b34801561037a57600080fd5b50610277610a8e565b61027761039136600461229d565b610ad9565b6102776103a436600461229d565b610b78565b3480156103b557600080fd5b5061024a610c13565b3480156103ca57600080fd5b5061021d610c22565b3480156103df57600080fd5b50610361610c31565b3480156103f457600080fd5b506102776104033660046121bc565b610c35565b34801561041457600080fd5b50610277610423366004612143565b610c4b565b34801561043457600080fd5b5061044861044336600461229d565b610c84565b6040516101ff989796959493929190612a62565b34801561046857600080fd5b5061024a610d6a565b34801561047d57600080fd5b5061028e61048c3660046120bc565b610d6e565b34801561049d57600080fd5b5061021d6104ac36600461229d565b610f7f565b6102776104bf366004612257565b611002565b6102776104d236600461229d565b61101d565b6102776110a5565b61027761111a565b3480156104f357600080fd5b506101f26105023660046120d6565b6111a5565b34801561051357600080fd5b506102776105223660046120bc565b6111d3565b34801561053357600080fd5b5061053c611241565b6040516101ff91906129f9565b60006001600160e01b031982166380ac58cd60e01b148061057a57506001600160e01b03198216635b5e139f60e01b145b8061058957506105898261139d565b90505b919050565b6060600080546105a090612bb8565b80601f01602080910402602001604051908101604052809291908181526020018280546105cc90612bb8565b80156106195780601f106105ee57610100808354040283529160200191610619565b820191906000526020600020905b8154815290600101906020018083116105fc57829003601f168201915b5050505050905090565b600061062e826113b6565b6106535760405162461bcd60e51b815260040161064a906127af565b60405180910390fd5b506000908152600460205260409020546001600160a01b031690565b600061067a82610a15565b9050806001600160a01b0316836001600160a01b031614156106ae5760405162461bcd60e51b815260040161064a906128c8565b806001600160a01b03166106c06113d3565b6001600160a01b031614806106dc57506106dc816105026113d3565b6106f85760405162461bcd60e51b815260040161064a9061268a565b61070283836113d7565b505050565b60606009805480602002602001604051908101604052809291908181526020016000905b828210156108435783829060005260206000209060070201604051806101000160405290816000820154815260200160018201805461076990612bb8565b80601f016020809104026020016040519081016040528092919081815260200182805461079590612bb8565b80156107e25780601f106107b7576101008083540402835291602001916107e2565b820191906000526020600020905b8154815290600101906020018083116107c557829003601f168201915b50505091835250506002820154602080830191909152600383015460ff808216604085015261010090910416606083015260048301546080830152600583015460a083015260069092015460c090910152908252600192909201910161072b565b50505050905090565b61085d6108576113d3565b82611445565b6108795760405162461bcd60e51b815260040161064a90612953565b6107028383836114ca565b61088c6113d3565b6001600160a01b031661089d610c13565b6001600160a01b0316146108c35760405162461bcd60e51b815260040161064a906127fb565b600855565b600a805481906108d790612bb8565b80601f016020809104026020016040519081016040528092919081815260200182805461090390612bb8565b80156109505780601f1061092557610100808354040283529160200191610950565b820191906000526020600020905b81548152906001019060200180831161093357829003601f168201915b50505050509080600101549080600201549080600301549080600401805461097790612bb8565b80601f01602080910402602001604051908101604052809291908181526020018280546109a390612bb8565b80156109f05780601f106109c5576101008083540402835291602001916109f0565b820191906000526020600020905b8154815290600101906020018083116109d357829003601f168201915b5050505050905085565b61070283838360405180602001604052806000815250610c4b565b6000818152600260205260408120546001600160a01b0316806105895760405162461bcd60e51b815260040161064a90612731565b60006001600160a01b038216610a725760405162461bcd60e51b815260040161064a906126e7565b506001600160a01b031660009081526003602052604090205490565b610a966113d3565b6001600160a01b0316610aa7610c13565b6001600160a01b031614610acd5760405162461bcd60e51b815260040161064a906127fb565b610ad760006115f7565b565b338181610ae582610a15565b6001600160a01b031614610af857600080fd5b600060098481548110610b1b57634e487b7160e01b600052603260045260246000fd5b600091825260209091206003600790920201908101549091506103e890610b4c9060ff610100820481169116612b4c565b60ff16610b599190612ad6565b61ffff16341015610b6957600080fd5b610b7284611649565b50505050565b338181610b8482610a15565b6001600160a01b031614610b9757600080fd5b600060098481548110610bba57634e487b7160e01b600052603260045260246000fd5b60009182526020909120600790910201600381015490915061271090610beb9060ff80821691610100900416612b4c565b60ff16610bf89190612ad6565b61ffff16341015610c0857600080fd5b8054610b7290611712565b6006546001600160a01b031690565b6060600180546105a090612bb8565b4790565b610c47610c406113d3565b838361183b565b5050565b610c5c610c566113d3565b83611445565b610c785760405162461bcd60e51b815260040161064a90612953565b610b72848484846118de565b60098181548110610c9457600080fd5b60009182526020909120600790910201805460018201805491935090610cb990612bb8565b80601f0160208091040260200160405190810160405280929190818152602001828054610ce590612bb8565b8015610d325780601f10610d0757610100808354040283529160200191610d32565b820191906000526020600020905b815481529060010190602001808311610d1557829003601f168201915b50505060028401546003850154600486015460058701546006909701549596929560ff80841696506101009093049092169350919088565b3090565b60606000610d7b83610a4a565b67ffffffffffffffff811115610da157634e487b7160e01b600052604160045260246000fd5b604051908082528060200260200182016040528015610dda57816020015b610dc7611f1c565b815260200190600190039081610dbf5790505b5090506000805b600954811015610f7657846001600160a01b0316610dfe82610a15565b6001600160a01b03161415610f645760098281548110610e2e57634e487b7160e01b600052603260045260246000fd5b90600052602060002090600702016040518061010001604052908160008201548152602001600182018054610e6290612bb8565b80601f0160208091040260200160405190810160405280929190818152602001828054610e8e90612bb8565b8015610edb5780601f10610eb057610100808354040283529160200191610edb565b820191906000526020600020905b815481529060010190602001808311610ebe57829003601f168201915b505050918352505060028201546020820152600382015460ff808216604084015261010090910416606082015260048201546080820152600582015460a082015260069091015460c0909101528351849084908110610f4a57634e487b7160e01b600052603260045260246000fd5b60200260200101819052508180610f6090612bf3565b9250505b80610f6e81612bf3565b915050610de1565b50909392505050565b6060610f8a826113b6565b610fa65760405162461bcd60e51b815260040161064a90612879565b6000610fb0611911565b90506000815111610fd05760405180602001604052806000815250610ffb565b80610fda84611923565b604051602001610feb9291906122e1565b6040516020818303038152906040525b9392505050565b60085434101561101157600080fd5b61101a81611a3e565b50565b33818161102982610a15565b6001600160a01b03161461103c57600080fd5b60006009848154811061105f57634e487b7160e01b600052603260045260246000fd5b90600052602060002090600702019050600a8160030160019054906101000a900460ff1661108d9190612b0b565b60ff1634101561109c57600080fd5b610b7284611c1a565b600f5433906001600160a01b031681146110d15760405162461bcd60e51b815260040161064a90612909565b604051339081904780156108fc02916000818181858888f193505050501580156110ff573d6000803e3d6000fd5b5050600f80546001600160a01b031916905550600b54600c55565b6111226113d3565b6001600160a01b0316611133610c13565b6001600160a01b0316146111595760405162461bcd60e51b815260040161064a906127fb565b6000611163610c13565b6040519091506001600160a01b038216904780156108fc02916000818181858888f1935050505015801561119b573d6000803e3d6000fd5b5050600b54600c55565b6001600160a01b03918216600090815260056020908152604080832093909416825291909152205460ff1690565b6111db6113d3565b6001600160a01b03166111ec610c13565b6001600160a01b0316146112125760405162461bcd60e51b815260040161064a906127fb565b6001600160a01b0381166112385760405162461bcd60e51b815260040161064a90612546565b61101a816115f7565b611249611f67565b600a6040518060a001604052908160008201805461126690612bb8565b80601f016020809104026020016040519081016040528092919081815260200182805461129290612bb8565b80156112df5780601f106112b4576101008083540402835291602001916112df565b820191906000526020600020905b8154815290600101906020018083116112c257829003601f168201915b5050505050815260200160018201548152602001600282015481526020016003820154815260200160048201805461131690612bb8565b80601f016020809104026020016040519081016040528092919081815260200182805461134290612bb8565b801561138f5780601f106113645761010080835404028352916020019161138f565b820191906000526020600020905b81548152906001019060200180831161137257829003601f168201915b505050505081525050905090565b6001600160e01b031981166301ffc9a760e01b14919050565b6000908152600260205260409020546001600160a01b0316151590565b3390565b600081815260046020526040902080546001600160a01b0319166001600160a01b038416908117909155819061140c82610a15565b6001600160a01b03167f8c5be1e5ebec7d5bd14f71427d1e84f3dd0314c0f7b2291e5b200ac8c7c3b92560405160405180910390a45050565b6000611450826113b6565b61146c5760405162461bcd60e51b815260040161064a9061263e565b600061147783610a15565b9050806001600160a01b0316846001600160a01b031614806114b25750836001600160a01b03166114a784610623565b6001600160a01b0316145b806114c257506114c281856111a5565b949350505050565b826001600160a01b03166114dd82610a15565b6001600160a01b0316146115035760405162461bcd60e51b815260040161064a90612830565b6001600160a01b0382166115295760405162461bcd60e51b815260040161064a906125c3565b611534838383610702565b61153f6000826113d7565b6001600160a01b0383166000908152600360205260408120805460019290611568908490612b75565b90915550506001600160a01b0382166000908152600360205260408120805460019290611596908490612abe565b909155505060008181526002602052604080822080546001600160a01b0319166001600160a01b0386811691821790925591518493918716917fddf252ad1be2c89b69c2b068fc378daa952ba7f163c4a11628f55a4df523b3ef91a4505050565b600680546001600160a01b038381166001600160a01b0319831681179093556040519116919082907f8be0079c531659141344cd1fd0a4f28419497f9722a3daafe3b4186f6b6457e090600090a35050565b60006009828154811061166c57634e487b7160e01b600052603260045260246000fd5b6000918252602082206003600790920201908101805491935060ff9091169161169483612c0e565b91906101000a81548160ff021916908360ff1602179055505080600401546101f46116bf9190612abe565b600482015560068101546116d4906032612abe565b60068201556004810154600582015560405133907f8ad17d0e3a72dc2a0396cba3c378112eede653052eefdf0b0f0b845dd4374c8790600090a25050565b60006009828154811061173557634e487b7160e01b600052603260045260246000fd5b9060005260206000209060070201905060008160050154116117695760405162461bcd60e51b815260040161064a9061249e565b600c546117885760405162461bcd60e51b815260040161064a906129a4565b6006810154600c5410156117b2576000600c55600f80546001600160a01b031916331790556117c8565b6006810154600c546117c49190612b75565b600c555b600d54600582015410156117e257600060058201556117fa565b600d5460058201546117f49190612b75565b60058201555b600c5460405133917f1f1b4da6d7391f9c534b6e4d1e94a1b55cdc95f7254f9576c483d25c5949cacf9161182f91159061243d565b60405180910390a25050565b816001600160a01b0316836001600160a01b0316141561186d5760405162461bcd60e51b815260040161064a90612607565b6001600160a01b0383811660008181526005602090815260408083209487168084529490915290819020805460ff1916851515179055517f17307eab39ab6107e8899845ad3d59bd9653f200f220920489ca2b5937696c31906118d190859061243d565b60405180910390a3505050565b6118e98484846114ca565b6118f584848484611c95565b610b725760405162461bcd60e51b815260040161064a906124f4565b60408051602081019091526000815290565b60608161194857506040805180820190915260018152600360fc1b602082015261058c565b8160005b8115611972578061195c81612bf3565b915061196b9050600a83612af7565b915061194c565b60008167ffffffffffffffff81111561199b57634e487b7160e01b600052604160045260246000fd5b6040519080825280601f01601f1916602001820160405280156119c5576020820181803683370190505b5090505b84156114c2576119da600183612b75565b91506119e7600a86612c2e565b6119f2906030612abe565b60f81b818381518110611a1557634e487b7160e01b600052603260045260246000fd5b60200101906001600160f81b031916908160001a905350611a37600a86612af7565b94506119c9565b6000611a4a6064611db0565b90506000611a5e662386f26fc10000611db0565b905060008260ff16611a706064611db0565b611a7a9190612b2d565b905060008360ff16611a8c600a611db0565b611a969190612b2d565b604080516101008101825260078054825260208083018a815293830188905260016060840181905260ff8a16608085015260a0840188905260c0840188905260e08401869052600980549182018155600052835192027f6e1540171b6c0c960b71a7020d9f60077f6af931a8bbf590da0223dacf75c7af810192835593518051959650929485949293611b4d937f6e1540171b6c0c960b71a7020d9f60077f6af931a8bbf590da0223dacf75c7b001920190611f96565b50604082015160028201556060820151600382018054608085015160ff9081166101000261ff00199190941660ff19909216919091171691909117905560a0820151600482015560c0820151600582015560e090910151600690910155600754611bb8903390611dea565b60078054906000611bc883612bf3565b9190505550336001600160a01b03167f2052b1b348fbae85ede1941c2008aa7bc33dbe800dd6ef1c3a9c8eeb5759bfbb60075486604051611c0a929190612ab0565b60405180910390a2505050505050565b600060098281548110611c3d57634e487b7160e01b600052603260045260246000fd5b600091825260208220600460079092020190810154600582015560038101805460ff1916600117905560405190925033917fea0e882c7ee15f5de4b0e862e9bddb2841887bf7c0784322ab2e96c961fbccdf91a25050565b6000611ca9846001600160a01b0316611e04565b15611da557836001600160a01b031663150b7a02611cc56113d3565b8786866040518563ffffffff1660e01b8152600401611ce79493929190612344565b602060405180830381600087803b158015611d0157600080fd5b505af1925050508015611d31575060408051601f3d908101601f19168201909252611d2e9181019061223b565b60015b611d8b573d808015611d5f576040519150601f19603f3d011682016040523d82523d6000602084013e611d64565b606091505b508051611d835760405162461bcd60e51b815260040161064a906124f4565b805181602001fd5b6001600160e01b031916630a85bd0160e11b1490506114c2565b506001949350505050565b6000804233604051602001611dc6929190612310565b60408051601f1981840301815291905280516020909101209050610ffb8382612c2e565b610c47828260405180602001604052806000815250611e0a565b3b151590565b611e148383611e3d565b611e216000848484611c95565b6107025760405162461bcd60e51b815260040161064a906124f4565b6001600160a01b038216611e635760405162461bcd60e51b815260040161064a9061277a565b611e6c816113b6565b15611e895760405162461bcd60e51b815260040161064a9061258c565b611e9560008383610702565b6001600160a01b0382166000908152600360205260408120805460019290611ebe908490612abe565b909155505060008181526002602052604080822080546001600160a01b0319166001600160a01b03861690811790915590518392907fddf252ad1be2c89b69c2b068fc378daa952ba7f163c4a11628f55a4df523b3ef908290a45050565b604051806101000160405280600081526020016060815260200160008152602001600060ff168152602001600060ff1681526020016000815260200160008152602001600081525090565b6040518060a0016040528060608152602001600081526020016000815260200160008152602001606081525090565b828054611fa290612bb8565b90600052602060002090601f016020900481019282611fc4576000855561200a565b82601f10611fdd57805160ff191683800117855561200a565b8280016001018555821561200a579182015b8281111561200a578251825591602001919060010190611fef565b5061201692915061201a565b5090565b5b80821115612016576000815560010161201b565b600067ffffffffffffffff8084111561204a5761204a612c6e565b604051601f8501601f19908116603f0116810190828211818310171561207257612072612c6e565b8160405280935085815286868601111561208b57600080fd5b858560208301376000602087830101525050509392505050565b80356001600160a01b038116811461058c57600080fd5b6000602082840312156120cd578081fd5b610ffb826120a5565b600080604083850312156120e8578081fd5b6120f1836120a5565b91506120ff602084016120a5565b90509250929050565b60008060006060848603121561211c578081fd5b612125846120a5565b9250612133602085016120a5565b9150604084013590509250925092565b60008060008060808587031215612158578081fd5b612161856120a5565b935061216f602086016120a5565b925060408501359150606085013567ffffffffffffffff811115612191578182fd5b8501601f810187136121a1578182fd5b6121b08782356020840161202f565b91505092959194509250565b600080604083850312156121ce578182fd5b6121d7836120a5565b9150602083013580151581146121eb578182fd5b809150509250929050565b60008060408385031215612208578182fd5b612211836120a5565b946020939093013593505050565b600060208284031215612230578081fd5b8135610ffb81612c84565b60006020828403121561224c578081fd5b8151610ffb81612c84565b600060208284031215612268578081fd5b813567ffffffffffffffff81111561227e578182fd5b8201601f8101841361228e578182fd5b6114c28482356020840161202f565b6000602082840312156122ae578081fd5b5035919050565b600081518084526122cd816020860160208601612b8c565b601f01601f19169290920160200192915050565b600083516122f3818460208801612b8c565b835190830190612307818360208801612b8c565b01949350505050565b91825260601b6bffffffffffffffffffffffff1916602082015260340190565b6001600160a01b0391909116815260200190565b6001600160a01b0385811682528416602082015260408101839052608060608201819052600090612377908301846122b5565b9695505050505050565b60208082528251828201819052600091906040908185019080840286018301878501865b8381101561242f57603f1989840301855281516101008151855288820151818a8701526123d4828701826122b5565b838a0151878b015260608085015160ff908116918901919091526080808601519091169088015260a0808501519088015260c0808501519088015260e0938401519390960192909252505093860193908601906001016123a5565b509098975050505050505050565b901515815260200190565b600060208252610ffb60208301846122b5565b600060a0825261246e60a08301886122b5565b866020840152856040840152846060840152828103608084015261249281856122b5565b98975050505050505050565b60208082526036908201527f4572726f723a204c6120736b756c6c207469656e65207175652074656e6572206040820152753b34b230903830b930903837b232b91030ba30b1b0b960511b606082015260800190565b60208082526032908201527f4552433732313a207472616e7366657220746f206e6f6e20455243373231526560408201527131b2b4bb32b91034b6b83632b6b2b73a32b960711b606082015260800190565b60208082526026908201527f4f776e61626c653a206e6577206f776e657220697320746865207a65726f206160408201526564647265737360d01b606082015260800190565b6020808252601c908201527f4552433732313a20746f6b656e20616c7265616479206d696e74656400000000604082015260600190565b60208082526024908201527f4552433732313a207472616e7366657220746f20746865207a65726f206164646040820152637265737360e01b606082015260800190565b60208082526019908201527f4552433732313a20617070726f766520746f2063616c6c657200000000000000604082015260600190565b6020808252602c908201527f4552433732313a206f70657261746f7220717565727920666f72206e6f6e657860408201526b34b9ba32b73a103a37b5b2b760a11b606082015260800190565b60208082526038908201527f4552433732313a20617070726f76652063616c6c6572206973206e6f74206f7760408201527f6e6572206e6f7220617070726f76656420666f7220616c6c0000000000000000606082015260800190565b6020808252602a908201527f4552433732313a2062616c616e636520717565727920666f7220746865207a65604082015269726f206164647265737360b01b606082015260800190565b60208082526029908201527f4552433732313a206f776e657220717565727920666f72206e6f6e657869737460408201526832b73a103a37b5b2b760b91b606082015260800190565b6020808252818101527f4552433732313a206d696e7420746f20746865207a65726f2061646472657373604082015260600190565b6020808252602c908201527f4552433732313a20617070726f76656420717565727920666f72206e6f6e657860408201526b34b9ba32b73a103a37b5b2b760a11b606082015260800190565b6020808252818101527f4f776e61626c653a2063616c6c6572206973206e6f7420746865206f776e6572604082015260600190565b60208082526029908201527f4552433732313a207472616e73666572206f6620746f6b656e2074686174206960408201526839903737ba1037bbb760b91b606082015260800190565b6020808252602f908201527f4552433732314d657461646174613a2055524920717565727920666f72206e6f60408201526e3732bc34b9ba32b73a103a37b5b2b760891b606082015260800190565b60208082526021908201527f4552433732313a20617070726f76616c20746f2063757272656e74206f776e656040820152603960f91b606082015260800190565b6020808252602a908201527f596f7520617265206e6f7420746865206f6e652077686f2064656665617465646040820152692074686520626f73732160b01b606082015260800190565b60208082526031908201527f4552433732313a207472616e736665722063616c6c6572206973206e6f74206f6040820152701ddb995c881b9bdc88185c1c1c9bdd9959607a1b606082015260800190565b60208082526035908201527f4572726f723a20456c206a656665207469656e65207175652074656e6572207660408201527434b230903830b930903837b232b91030ba30b1b0b960591b606082015260800190565b600060208252825160a06020840152612a1560c08401826122b5565b90506020840151604084015260408401516060840152606084015160808401526080840151601f198483030160a0850152612a5082826122b5565b95945050505050565b90815260200190565b60006101008a8352806020840152612a7c8184018b6122b5565b6040840199909952505060ff958616606082015293909416608084015260a083019190915260c082015260e0015292915050565b918252602082015260400190565b60008219821115612ad157612ad1612c42565b500190565b600061ffff80841680612aeb57612aeb612c58565b92169190910492915050565b600082612b0657612b06612c58565b500490565b600060ff831680612b1e57612b1e612c58565b8060ff84160491505092915050565b6000816000190483118215151615612b4757612b47612c42565b500290565b600060ff821660ff84168160ff0481118215151615612b6d57612b6d612c42565b029392505050565b600082821015612b8757612b87612c42565b500390565b60005b83811015612ba7578181015183820152602001612b8f565b83811115610b725750506000910152565b600281046001821680612bcc57607f821691505b60208210811415612bed57634e487b7160e01b600052602260045260246000fd5b50919050565b6000600019821415612c0757612c07612c42565b5060010190565b600060ff821660ff811415612c2557612c25612c42565b60010192915050565b600082612c3d57612c3d612c58565b500690565b634e487b7160e01b600052601160045260246000fd5b634e487b7160e01b600052601260045260246000fd5b634e487b7160e01b600052604160045260246000fd5b6001600160e01b03198116811461101a57600080fdfea26469706673582212208302f4163ea1cf12c5ef123ba08c6e1a56bc6b12edd57098d8430ba9f0e9acca64736f6c63430008010033",
  "immutableReferences": {},
  "source": "// SPDX-License-Identifier: MIT\r\npragma solidity ^0.8.0;\r\n\r\n// Importacion de los Smart Contract: ERC-721.sol y Ownable.sol\r\nimport \"@openzeppelin/contracts/token/ERC721/ERC721.sol\";\r\nimport \"@openzeppelin/contracts/access/Ownable.sol\";\r\n\r\n// Crear el smart contract para el videojuego NFT\r\ncontract GameContract is ERC721, Ownable {\r\n    // Constructor de mi Smart Contract\r\n    constructor(\r\n        string memory _name,\r\n        string memory _symbol,\r\n        string memory treeBossName,\r\n        uint256 treeBossMaxHpPoints,\r\n        uint256 treeBossAttackPoints,\r\n        string memory treeBossImageURI\r\n    ) ERC721(_name, _symbol) {\r\n        // Inicilizacin del jefe arbol\r\n        treeBoss = TreeBoss({\r\n            name: treeBossName,\r\n            maxHpPoints: treeBossMaxHpPoints,\r\n            hpPoints: treeBossMaxHpPoints,\r\n            attackPoints: treeBossAttackPoints,\r\n            imageURI: treeBossImageURI\r\n        });\r\n    }\r\n\r\n    // ================================== Declaraciones iniciales ========================================\r\n    // Contador de tokens NFT\r\n    uint256 skullCounter;\r\n\r\n    // Fijacin del precio de los tokens NFT\r\n    uint256 cost = 0.001 ether; // Aunque despleguemos en diferentes blockchains el precio del smart contract siempre en ethers\r\n\r\n    // Estructura de datos con las propiedades del skull\r\n    struct Skull {\r\n        uint256 id;\r\n        string name;\r\n        uint256 dna;\r\n        uint8 level;\r\n        uint8 rarity;\r\n        uint256 maxHpPoints;\r\n        uint256 hpPoints;\r\n        uint256 attackPoints;\r\n    }\r\n\r\n    struct TreeBoss {\r\n        string name;\r\n        uint256 maxHpPoints;\r\n        uint256 hpPoints;\r\n        uint256 attackPoints;\r\n        string imageURI;\r\n    }\r\n\r\n    // Estructura de almacenamiento\r\n    Skull[] public skulls;\r\n    TreeBoss public treeBoss;\r\n    address winnerAddress;\r\n\r\n    // Declaracin de un emisor de eventos\r\n    event CreateSkull(address indexed owner, uint256 id, uint256 dna);\r\n    event LevelUpSkull(address indexed owner);\r\n    event ReviveSkull(address indexed owner);\r\n    event BossAttacked(address indexed owner, bool isBossDefeated);\r\n\r\n    // ====================================== Modificadores =========================================\r\n    // Modificador para que solo el ganador pueda sacar dinero\r\n    modifier onlyWinner(address _direccion) {\r\n        require(\r\n            winnerAddress == _direccion,\r\n            \"You are not the one who defeated the boss!\"\r\n        );\r\n        _;\r\n    }\r\n\r\n    // Modificador para que solo el dueo de la skull pueda actuar\r\n    modifier onlySkullOwner(address _direccion, uint256 _skullId) {\r\n        require(ownerOf(_skullId) == _direccion);\r\n        _;\r\n    }\r\n\r\n    // =========================== Funciones del dueo del contrato =========================================\r\n    // Actualizador del precio del token NFT\r\n    function updateCost(uint256 _cost) external onlyOwner {\r\n        cost = _cost;\r\n    }\r\n\r\n    // Extractor de los ethers del smart contract hacia el owner\r\n    function withdrawOwner() external payable onlyOwner {\r\n        address payable _owner = payable(owner()); // Esta funcion owner de Ownable.sol permite obtener el owner sin necesidad de declararlo en el constructor de nuestro contrato\r\n        _owner.transfer(address(this).balance);\r\n\r\n        // Una vez reclamada la recompensa el boss revive\r\n        TreeBoss storage boss = treeBoss;\r\n        boss.hpPoints = boss.maxHpPoints;\r\n    }\r\n\r\n    // =========================== Funciones internas del contrato =========================================\r\n    // Asignador de numeros aleatorios\r\n    function _createRandomNumber(uint256 _mod) internal view returns (uint256) {\r\n        uint256 randomNumber = uint256(\r\n            keccak256(abi.encodePacked(block.timestamp, msg.sender))\r\n        );\r\n        return randomNumber % _mod;\r\n    }\r\n\r\n    // Creador del token NFT\r\n    function _createSkull(string memory _name) internal {\r\n        uint8 randomRarity = uint8(_createRandomNumber(100));\r\n        uint256 randomDna = _createRandomNumber(10**16);\r\n        uint256 maxHp = _createRandomNumber(100) * randomRarity;\r\n        uint256 attack = _createRandomNumber(10) * randomRarity;\r\n\r\n        Skull memory newSkull = Skull(\r\n            skullCounter,\r\n            _name,\r\n            randomDna,\r\n            1,\r\n            randomRarity,\r\n            maxHp,\r\n            maxHp, // Por defecto todos los nft empiezan con toda la vida\r\n            attack\r\n        );\r\n\r\n        skulls.push(newSkull);\r\n        _safeMint(msg.sender, skullCounter); // Funcin de ERC721.sol que asigna al msg sender que ejecute el token el valor del contador\r\n\r\n        skullCounter++; // Incrementamos el valor del contador antes de crear cada skull para evitar que se use el id 0 y que se considera una mala practica\r\n        emit CreateSkull(msg.sender, skullCounter, randomDna); // Emitimos el evento de que el token ha sido creado\r\n    }\r\n\r\n    // Subir de nivel los tokens NFT\r\n    function _levelUpSkull(uint256 _skullId) internal {\r\n        Skull storage skull = skulls[_skullId];\r\n        skull.level++;\r\n        skull.maxHpPoints = skull.maxHpPoints + 500;\r\n        skull.attackPoints = skull.attackPoints + 50;\r\n        skull.hpPoints = skull.maxHpPoints;\r\n        emit LevelUpSkull(msg.sender);\r\n    }\r\n\r\n    // Revivir un token NFT\r\n    function _reviveSkull(uint256 _skullId) internal {\r\n        Skull storage skull = skulls[_skullId];\r\n        skull.hpPoints = skull.maxHpPoints;\r\n        skull.level = 1;\r\n        emit ReviveSkull(msg.sender);\r\n    }\r\n\r\n    // Iniciar un ataque contra el TreeBoss\r\n    function _attackBoss(uint256 _skullId) internal {\r\n        // Muy importante usar el storage para poder modificar los valores del nft\r\n        Skull storage skull = skulls[_skullId];\r\n\r\n        // Comprobar que el NFT seleccionado tiene mas de 0 HP.\r\n        require(\r\n            skull.hpPoints > 0,\r\n            \"Error: La skull tiene que tener vida para poder atacar\"\r\n        );\r\n\r\n        // Comprobar que el jefe tiene mas de 0 HP.\r\n        require(\r\n            treeBoss.hpPoints > 0,\r\n            \"Error: El jefe tiene que tener vida para poder atacar\"\r\n        );\r\n\r\n        // Permitir que la skull seleccionada ataque al jefe\r\n        if (treeBoss.hpPoints < skull.attackPoints) {\r\n            treeBoss.hpPoints = 0;\r\n            winnerAddress = msg.sender;\r\n        } else {\r\n            treeBoss.hpPoints = treeBoss.hpPoints - skull.attackPoints;\r\n        }\r\n\r\n        // Permitir que el jefe ataque a la skull seleccionada\r\n        if (skull.hpPoints < treeBoss.attackPoints) {\r\n            skull.hpPoints = 0;\r\n        } else {\r\n            skull.hpPoints = skull.hpPoints - treeBoss.attackPoints;\r\n        }\r\n\r\n        emit BossAttacked(msg.sender, treeBoss.hpPoints == 0);\r\n    }\r\n\r\n    // ====================================== Funciones publicas del contrato =========================================\r\n    // Obtencin de los tokens de un usuario concreto\r\n    function getUserSkulls(address _owner)\r\n        public\r\n        view\r\n        returns (Skull[] memory)\r\n    {\r\n        Skull[] memory result = new Skull[](balanceOf(_owner));\r\n\r\n        uint256 loopCounter = 0;\r\n        for (uint256 i = 0; i < skulls.length; i++) {\r\n            if (ownerOf(i) == _owner) {\r\n                result[loopCounter] = skulls[loopCounter];\r\n                loopCounter++;\r\n            }\r\n        }\r\n\r\n        return result;\r\n    }\r\n\r\n    // Obtencin de todos los tokens NFT\r\n    function getSkulls() public view returns (Skull[] memory) {\r\n        return skulls;\r\n    }\r\n\r\n    // Obtencin de la informacin del jefe\r\n    function getBossInfo() public view returns (TreeBoss memory) {\r\n        return treeBoss;\r\n    }\r\n\r\n    // Visualizar la direccin del smart contract\r\n    function addressSmartContract() public view returns (address) {\r\n        return address(this);\r\n    }\r\n\r\n    // Visualizar el balance del smart contract\r\n    function moneySmartContract() public view returns (uint256) {\r\n        return address(this).balance;\r\n    }\r\n\r\n    // Extractor de los ethers del smart contract hacia la direccion del que derroto al jefe\r\n    function withdrawWinner() public payable onlyWinner(msg.sender) {\r\n        // Transferimos el dinero al address del usuario que le dio el ultimo golpe al jefe\r\n        address payable _winner = payable(msg.sender);\r\n        _winner.transfer(address(this).balance);\r\n\r\n        // Reseteamos la address del ganador\r\n        winnerAddress = address(0);\r\n\r\n        // Una vez reclamada la recompensa el boss revive\r\n        TreeBoss storage boss = treeBoss;\r\n        boss.hpPoints = boss.maxHpPoints;\r\n    }\r\n\r\n    // Verificacin de crear un NFT\r\n    function createSkull(string memory _name) public payable {\r\n        require(msg.value >= cost); // Comprobamos que el pago es suficiente\r\n        _createSkull(_name);\r\n    }\r\n\r\n    // Verificacin de subir de nivel un NFT\r\n    function levelUpSkull(uint256 _skullId)\r\n        public\r\n        payable\r\n        onlySkullOwner(msg.sender, _skullId)\r\n    {\r\n        Skull storage skull = skulls[_skullId];\r\n        require(msg.value >= (skull.level * skull.rarity) / 1000); // Comprobamos que el pago es suficiente\r\n        _levelUpSkull(_skullId);\r\n    }\r\n\r\n    // Verificacin de revivir un NFT\r\n    function reviveSkull(uint256 _skullId)\r\n        public\r\n        payable\r\n        onlySkullOwner(msg.sender, _skullId)\r\n    {\r\n        Skull storage skull = skulls[_skullId];\r\n        require(msg.value >= skull.rarity / 10); // Comprobamos que el pago es suficiente\r\n        _reviveSkull(_skullId);\r\n    }\r\n\r\n    // Verificacin de atacar al jefe\r\n    function attackSkull(uint256 _skullId)\r\n        public\r\n        payable\r\n        onlySkullOwner(msg.sender, _skullId)\r\n    {\r\n        Skull storage skull = skulls[_skullId];\r\n        require(msg.value >= (skull.rarity * skull.level) / 10000); // Comprobamos que el pago es suficiente\r\n        _attackBoss(skull.id);\r\n    }\r\n}\r\n",
  "sourcePath": "C:\\Archivos Utiles\\TFG Documents\\Parte 4\\SkullGame\\contracts\\GameContract.sol",
  "compiler": {
    "name": "solc",
    "version": "0.8.1+commit.df193b15.Emscripten.clang"
  },
  "schemaVersion": "3.4.5",
  "updatedAt": "2022-04-12T15:26:20.838Z",
  "networkType": "ethereum",
  "devdoc": {
    "kind": "dev",
    "methods": {
      "approve(address,uint256)": {
        "details": "See {IERC721-approve}."
      },
      "balanceOf(address)": {
        "details": "See {IERC721-balanceOf}."
      },
      "getApproved(uint256)": {
        "details": "See {IERC721-getApproved}."
      },
      "isApprovedForAll(address,address)": {
        "details": "See {IERC721-isApprovedForAll}."
      },
      "name()": {
        "details": "See {IERC721Metadata-name}."
      },
      "owner()": {
        "details": "Returns the address of the current owner."
      },
      "ownerOf(uint256)": {
        "details": "See {IERC721-ownerOf}."
      },
      "renounceOwnership()": {
        "details": "Leaves the contract without owner. It will not be possible to call `onlyOwner` functions anymore. Can only be called by the current owner. NOTE: Renouncing ownership will leave the contract without an owner, thereby removing any functionality that is only available to the owner."
      },
      "safeTransferFrom(address,address,uint256)": {
        "details": "See {IERC721-safeTransferFrom}."
      },
      "safeTransferFrom(address,address,uint256,bytes)": {
        "details": "See {IERC721-safeTransferFrom}."
      },
      "setApprovalForAll(address,bool)": {
        "details": "See {IERC721-setApprovalForAll}."
      },
      "supportsInterface(bytes4)": {
        "details": "See {IERC165-supportsInterface}."
      },
      "symbol()": {
        "details": "See {IERC721Metadata-symbol}."
      },
      "tokenURI(uint256)": {
        "details": "See {IERC721Metadata-tokenURI}."
      },
      "transferFrom(address,address,uint256)": {
        "details": "See {IERC721-transferFrom}."
      },
      "transferOwnership(address)": {
        "details": "Transfers ownership of the contract to a new account (`newOwner`). Can only be called by the current owner."
      }
    },
    "version": 1
  },
  "userdoc": {
    "kind": "user",
    "methods": {},
    "version": 1
  }
}